:020000020000FC
:020000000AC034
:1000140008C108E00EBF0FEF0DBF389A10E01AB9FF
:100024001FEF1BB91FEF10936D0014E010936800CD
:020034007894BE
:1002200088950C941001489B0E942C01499B0E94C8
:1002300034014A9B0E943C014B9B0E9444014C9B11
:100240000E944C014D9B0E9454014E9B0E945C01F8
:100250004F9B0E946401189542ED409300010E945B
:10026000840148990895FDCF48EC409300010E9415
:10027000840149990895FDCF4EEB409300010E94FF
:1002800084014A990895FDCF44EB409300010E94F8
:1002900084014B990895FDCF4AEA409300010E94E2
:1002A00084014C990895FDCF40EA409300010E94DB
:1002B00084014D990895FDCF46E9409300010E94C5
:1002C00084014E990895FDCF4CE8409300010E94AF
:1002D00084014F990895FDCF0F931F932F93409A58
:1002E0000091000115E000001A95E9F70A95D1F791
:1002F0004098052F14E000001A95E9F70A95D1F708
:100300002F911F910F9108950F931F932F933F9358
:100310004F935F936F933FEF40910001341B5091D7
:10032000000160E0032F14E1560F0E946C011A9542
:10033000E1F70A95C1F76F915F914F913F912F912E
:060340001F910F910895CA
:00000001FF
